S016000070726F736A656B745F6D6972636F2E7372656323
S11300000C9434000C943E000C943E000C943E007E
S11300100C943E000C943E000C943E000C943E0064
S11300200C943E000C943E000C943E000C943E0054
S11300300C943E000C943E000C943E000C943E0044
S11300400C943E000C943E000C943E000C943E0034
S11300500C943E000C943E000C943E000C943E0024
S11300600C943E000C943E0011241FBECFEFD8E048
S1130070DEBFCDBF0E9440000C94DE000C94000053
S11300800E9487000E94560081E00E9465009695B8
S113009087959695879596958795C82F0E94A30076
S11300A0882391F38C2F0E949000EECF82E084B9D4
S11300B082E8809380008AE18093810080E49CE957
S11300C090938700809386000895811104C080E492
S11300D080937C000BC0813021F481E480937C0008
S11300E005C0823089F482E480937C00EAE7F0E082
S11300F080818064808380917A0086FDFCCF80912A
S1130100780090917900089580E090E00895EEE7FA
S1130110F0E080818160808387E880937A0008958D
S1130120282F30E0A4EBBFE00E94CF0024EB30E0A6
S113013040E050E00E94AD002C523C4F30938900C7
S1130140209388000895823020F0843B20F080E0E2
S1130150089580E0089581E00895A1E21A2EAA1B73
S1130160BB1BFD010DC0AA1FBB1FEE1FFF1FA21763
S1130170B307E407F50720F0A21BB30BE40BF50B60
S1130180661F771F881F991F1A9469F760957095E9
S1130190809590959B01AC01BD01CF010895A29F6C
S11301A0B001B39FC001A39F700D811D1124911D47
S11301B0B29F700D811D1124911D0895F894FFCFF5
S9030000FC
