S016000070726F736A656B745F6D6972636F2E7372656323
S11300000C9434000C9449000C9449000C9449005D
S11300100C9449000C9449000C9449000C94490038
S11300200C9449000C9449000C9449000C94490028
S11300300C9449000C9449000C9449000C94490018
S11300400C9449000C9449000C9449000C94490008
S11300500C9449000C9449000C9449000C944900F8
S11300600C9449000C94490011241FBECFEFD8E032
S1130070DEBFCDBF11E0A0E0B1E0E2EAF0E002C0F3
S113008005900D92A030B107D9F70E944B000C9453
S11300904F000C94000017B882E084B9FFCFF894A5
S10500A0FFCF8C
S9030000FC
