:100000000C9434000C945A000C9451000C94510040
:100010000C9451000C9451000C9451000C9451001C
:100020000C9451000C9451000C9451000C9451000C
:100030000C9451000C9451000C9451000C945100FC
:100040000C9451000C9451000C9451000C945100EC
:100050000C9451000C9451000C9451000C945100DC
:100060000C9451000C94510011241FBECFEFD8E026
:10007000DEBFCDBF11E0A0E0B1E0E8E6F5E002C0F0
:1000800005900D92A035B107D9F721E0A0E5B1E0C8
:1000900001C01D92A635B207E1F70E94B2000C9490
:1000A000B2020C9400000E94BF0181E091E00E9426
:1000B000AC0108951F920F920FB60F9211242F9347
:1000C0003F934F935F936F937F938F939F93AF93E0
:1000D000BF93EF93FF934A9927C084E091E00E9479
:1000E000AC0180915001909151010E94530089E12F
:1000F00091E00E94AC0180915201909153010E94C5
:1001000053008FE291E00E94AC01809154019091E4
:1001100055010E94530085E491E00E94AC0180915A
:10012000000190E00E945300FF91EF91BF91AF91C9
:100130009F918F917F916F915F914F913F912F91FF
:100140000F900FBE0F901F9018958BB184608BB9E4
:100150008DB381608DBBE9E6F0E0808181608083B2
:100160007894089587E690E09093C5008093C4004A
:1001700088E18093C1000E9493010E943B010E948C
:100180000A010E94A50080E00E941901909353018A
:100190008093520181E00E94190190935501809350
:1001A000540182E00E941901909351018093500103
:1001B0004091540150915501609152017091530149
:1001C000209100010E947601809300010E9452015B
:1001D000882389F0609154017091550180915201FA
:1001E000909153010E945901882329F080910001C8
:1001F0000E943F01C8CF80910001853B20F084EB35
:1002000080930001C0CF853008F0BDCF81E080939E
:100210000001B9CF82E084B982E8809380008AE14E
:100220008093810080E49CE990938700809386000E
:100230000895811104C080E480937C000BC081305C
:1002400021F481E480937C0005C0823089F482E44B
:1002500080937C00EAE7F0E0808180648083809175
:100260007A0086FDFCCF8091780090917900089506
:1002700080E090E0089587E880937A000895282F21
:1002800030E0A4E0B0E10E948F0224EB30E040E0D7
:1002900050E00E946D0228513C4F3093890020931A
:1002A0008800089586508E3A10F481E0089580E029
:1002B0000895AC01461B570B9A0122F422273327DD
:1002C000241B350B263031056CF0681B790BCB01F4
:1002D000992324F488279927861B970B069724F4E3
:1002E00080E0089580E0089581E00895CF93DF9342
:1002F000EB01FA018C599F4F68EC70E00E945902A3
:10030000EC17FD0724F4261B822F90E009C0CE17BE
:10031000DF0724F4260F822F90E002C080E090E0F7
:10032000DF91CF91089587E690E09093C500809388
:10033000C400E0ECF0E080818D7F808388E18093D1
:10034000C10086E08093C20008959091C00095FF9F
:10035000FCCF8093C60008950F931F93CF938C0119
:10036000C0E003C00E94A501CF5FF801EC0FF11DB2
:1003700080818111F7CFCF911F910F9108950F9335
:100380001F93CF93DF938C019C013695279536956B
:10039000279536952795A5ECB0E20E948F02AC0117
:1003A000529542954F7045275F7045279A01ADECF5
:1003B000BCEC0E948F0296958795969587959695A9
:1003C00087959C01220F331F880F991F880F991F53
:1003D000880F991F820F931F9A01281B390BC9019F
:1003E000805D0E94A5019801369527953695279541
:1003F000ABE7B4E10E948F02AC01569547959A0194
:10040000ADECBCEC0E948F029695879596958795EA
:10041000969587959C01220F331F880F991F880F8F
:10042000991F880F991F820F931F9A01281B390B60
:10043000C901805D0E94A5019801ADECBCEC0E9451
:100440008F02EC01D695C795D695C795D695C795D9
:100450009E010E948F029695879596958795969511
:1004600087959C01220F331F880F991F880F991FB2
:10047000880F991F820F931F9E01281B390BC901FA
:10048000805D0E94A501CE01880F991FCC0FDD1F52
:10049000CC0FDD1FCC0FDD1FC80FD91FC8018C1B6F
:1004A0009D0B805D0E94A501DF91CF911F910F915F
:1004B000089597FB072E16F4009407D077FD09D016
:1004C0000E949E0207FC05D03EF4909581959F4FB7
:1004D0000895709561957F4F0895A1E21A2EAA1B89
:1004E000BB1BFD010DC0AA1FBB1FEE1FFF1FA217E4
:1004F000B307E407F50720F0A21BB30BE40BF50BE1
:10050000661F771F881F991F1A9469F76095709569
:10051000809590959B01AC01BD01CF010895A29FEC
:10052000B001B39FC001A39F700D811D1124911DC7
:10053000B29F700D811D1124911D0895AA1BBB1B34
:1005400051E107C0AA1FBB1FA617B70710F0A61BD3
:10055000B70B881F991F5A95A9F780959095BC01F4
:08056000CD010895F894FFCFCE
:100568005A0D0A00506F74656E696F6D6574657217
:100578002076616C75653A20004C6967687473650C
:100588006E736F7220312076616C75653A20004C6D
:100598006967687473656E736F7220322076616C58
:1005A80075653A2000506F736974696F6E3A200060
:00000001FF
