:100000000C9434000C9451000C9451000C94510049
:100010000C9451000C9451000C9451000C9451001C
:100020000C9451000C9451000C9451000C9451000C
:100030000C9451000C9451000C9451000C945100FC
:100040000C9451000C9451000C9451000C945100EC
:100050000C9451000C9451000C9451000C945100DC
:100060000C9451000C94510011241FBECFEFD8E026
:10007000DEBFCDBF11E0A0E0B1E0E6E9F2E002C0F2
:1000800005900D92A430B107D9F721E0A4E0B1E0CA
:1000900001C01D92AC30B207E1F70E9453000C94EE
:1000A00049010C94000081E090E00E94AC00909324
:1000B00007018093060182E090E00E94AC009093DB
:1000C00009018093080183E090E00E94AC009093C6
:1000D0000B0180930A016091080170910901AC0144
:1000E00080910601909107010E9484009093010184
:1000F000809300010E948300809100019091010192
:100100000E94CB00D0CF0895FB019A0168EC70E00B
:100110000E94E9002E173F076CF480910001909136
:1001200001019C01261B370BB9013093010120937B
:1001300000010FC0E217F3075CF480910001909179
:100140000101680F791F709301016093000101C0E4
:100150000895862F972F0895009721F480E48093C7
:100160007C000CC08130910521F481E480937C00F7
:1001700005C0029719F482E480937C00EEE7F0E07A
:1001800080818160808387EC80937A008091780001
:100190009091790008954091040150910501DC018E
:1001A000A41BB50B28E03CE00E941F012091020136
:1001B00030910301241B350B032E000C440B550B0F
:1001C0000E94FD0028563C4F309389002093880000
:1001D000089597FB072E16F4009407D077FD09D0F9
:1001E0000E94260107FC05D03EF4909581959F4F13
:1001F0000895709561957F4F0895A1E21A2EAA1B6C
:10020000BB1BFD010DC0AA1FBB1FEE1FFF1FA217C6
:10021000B307E407F50720F0A21BB30BE40BF50BC3
:10022000661F771F881F991F1A9469F7609570954C
:10023000809590959B01AC01BD01CF0108950E946E
:100240003A01B7FF0895821B930B0895AA1BBB1BAD
:1002500051E107C0AA1FBB1FA617B70710F0A61BC6
:10026000B70B881F991F5A95A9F780959095BC01E7
:10027000CD010895A29FB001B39FC001A39F700D4F
:10028000811D1124911DB29F700D811D1124911D9E
:060290000895F894FFCF71
:040296005A00B40056
:00000001FF
