:100000000C9434000C9451000C9451000C94510049
:100010000C9451000C9451000C9451000C9451001C
:100020000C9451000C9451000C9451000C9451000C
:100030000C9451000C9451000C9451000C945100FC
:100040000C9451000C9451000C9451000C945100EC
:100050000C9451000C9451000C9451000C945100DC
:100060000C9451000C94510011241FBECFEFD8E026
:10007000DEBFCDBF11E0A0E0B1E0E6E3F2E002C0F8
:1000800005900D92A430B107D9F721E0A4E0B1E0CA
:1000900001C01D92AC30B207E1F70E9453000C94EE
:1000A00019010C94000081E090E00E94A40090935C
:1000B00007018093060182E090E00E94A4009093E3
:1000C00009018093080183E090E00E94A4009093CE
:1000D0000B0180930A016091080170910901AC0144
:1000E00080910601909107010E9484009093010184
:1000F000809300010E948300809100019091010192
:100100000E94C300D0CF0895461757075CF4209192
:10011000000130910101281B390B3093010120931C
:1001200000010FC0641775075CF420910001309145
:100130000101280F391F309301012093000101C0F4
:100140000895822F932F0895009721F480E48093DF
:100150007C000CC08130910521F481E480937C0007
:1001600005C0029719F482E480937C00EEE7F0E08A
:1001700080818160808387EC80937A008091780011
:100180009091790008954091040150910501DC019E
:10019000A41BB50B28E03CE00E9403012091020162
:1001A00030910301241B350B032E000C440B550B1F
:1001B0000E94E10028563C4F30938900209388002C
:1001C0000895A1E21A2EAA1BBB1BFD010DC0AA1F98
:1001D000BB1FEE1FFF1FA217B307E407F50720F0B0
:1001E000A21BB30BE40BF50B661F771F881F991F2B
:1001F0001A9469F760957095809590959B01AC0174
:10020000BD01CF0108950E940A01B7FF0895821B26
:10021000930B0895A29FB001B39FC001A39F700DDF
:10022000811D1124911DB29F700D811D1124911DFE
:060230000895F894FFCFD1
:040236005A00B400B6
:00000001FF
