:100000000C9434000C9449000C9449000C94490061
:100010000C9449000C9449000C9449000C9449003C
:100020000C9449000C9449000C9449000C9449002C
:100030000C9449000C9449000C9449000C9449001C
:100040000C9449000C9449000C9449000C9449000C
:100050000C9449000C9449000C9449000C944900FC
:100060000C9449000C94490011241FBECFEFD8E036
:10007000DEBFCDBF11E0A0E0B1E0E4E7F4E002C0F4
:1000800005900D92A231B107D9F70E945C000C9443
:1000900038020C940000CF93DF93EC0180E091E0F4
:1000A0000E943201CE010E9445018EE091E00E9443
:1000B0003201DF91CF91089587E690E09093C500DB
:1000C0008093C40088E18093C1000E9419010E94BE
:1000D000C9000E949800CAE580E00E94A7008C0138
:1000E00081E00E94A7007C0182E00E94A7002C2FE3
:1000F000A701B8010E94FC00C82F0E94E0008823DD
:1001000051F0B701C8010E94E700882321F08C2F2D
:100110000E94CD0008C0C53B18F4C53018F003C0DC
:10012000C4EB01C0C1E08C2F90E00E944B00D4CF03
:1001300082E084B982E8809380008AE18093810024
:1001400080E49CE990938700809386000895811154
:1001500004C080E480937C000BC0813021F481E4F2
:1001600080937C0005C0823089F482E480937C0017
:10017000EAE7F0E080818064808380917A0086FDE8
:10018000FCCF8091780090917900089580E090E014
:10019000089587E880937A000895282F30E0A4E03E
:1001A000B0E10E94150224EB30E040E050E00E94F4
:1001B000F30128513C4F3093890020938800089523
:1001C00086508E3A10F481E0089580E008959C01F5
:1001D000261B370B2E5F3F4F2530310548F0681B3B
:1001E000790B6E5F7F4F6530710520F480E00895D4
:1001F00080E0089581E00895CF93DF93EB01FA0149
:100200008C599F4F68EC70E00E94DF01EC17FD07EE
:1002100024F4261B822F90E009C0CE17DF0724F4B8
:10022000260F822F90E002C080E090E0DF91CF9116
:10023000089587E690E09093C5008093C400E0ECB9
:10024000F0E080818D7F808388E18093C10086E02B
:100250008093C20008959091C00095FFFCCF8093D9
:10026000C60008950F931F93CF938C01C0E003C085
:100270000E942B01CF5FF801EC0FF11D80818111ED
:10028000F7CFCF911F910F9108950F931F93CF93A5
:10029000DF938C019C0136952795369527953695E9
:1002A0002795A5ECB0E20E941502AC01529542954B
:1002B0004F7045275F7045279A01ADECBCEC0E945A
:1002C00015029695879596958795969587959C01A5
:1002D000220F331F880F991F880F991F880F991FAE
:1002E000820F931F9A01281B390BC901805D0E9460
:1002F0002B0198013695279536952795ABE7B4E104
:100300000E941502AC01569547959A01ADECBCECE4
:100310000E9415029695879596958795969587954F
:100320009C01220F331F880F991F880F991F880F78
:10033000991F820F931F9A01281B390BC901805DF9
:100340000E942B019801ADECBCEC0E941502EC015F
:10035000D695C795D695C795D695C7959E010E9407
:1003600015029695879596958795969587959C0104
:10037000220F331F880F991F880F991F880F991F0D
:10038000820F931F9E01281B390BC901805D0E94BB
:100390002B01CE01880F991FCC0FDD1FCC0FDD1F65
:1003A000CC0FDD1FC80FD91FC8018C1B9D0B805DB2
:1003B0000E942B01DF91CF911F910F91089597FB20
:1003C000072E16F4009407D077FD09D00E9424026E
:1003D00007FC05D03EF4909581959F4F0895709548
:1003E00061957F4F0895A1E21A2EAA1BBB1BFD0148
:1003F0000DC0AA1FBB1FEE1FFF1FA217B307E40704
:10040000F50720F0A21BB30BE40BF50B661F771F5B
:10041000881F991F1A9469F760957095809590953B
:100420009B01AC01BD01CF010895A29FB001B39F14
:10043000C001A39F700D811D1124911DB29F700DED
:10044000811D1124911D0895AA1BBB1B51E107C0FA
:10045000AA1FBB1FA617B70710F0A61BB70B881F54
:10046000991F5A95A9F780959095BC01CD010895E3
:04047000F894FFCF2E
:1004740053656E736F7276616C75653A20000D0A70
:02048400000076
:00000001FF
