S016000070726F736A656B745F6D6972636F2E7372656323
S11300000C9434000C9449000C9449000C9449005D
S11300100C9449000C9449000C9449000C94490038
S11300200C9449000C9449000C9449000C94490028
S11300300C9449000C9449000C9449000C94490018
S11300400C9449000C9449000C9449000C94490008
S11300500C9449000C9449000C9449000C944900F8
S11300600C9449000C94490011241FBECFEFD8E032
S1130070DEBFCDBF11E0A0E0B1E0E8E8F4E002C0EB
S113008005900D92A233B107D9F70E9485000C9414
S113009042020C940000EF92FF920F931F93CF93B0
S11300A0DF937C018B01EA0180E091E00E943C0136
S11300B0C7010E944F0180E191E00E943C0182E16E
S11300C091E00E943C01C8010E944F0180E191E04F
S11300D00E943C0182E291E00E943C01CE010E9418
S11300E04F018EE291E00E943C012FEF83ED90E3FB
S11300F0215080409040E1F700C00000DF91CF9193
S11301001F910F91FF90EF90089587E690E09093F0
S1130110C5008093C40088E18093C1000E9423013C
S11301200E94E7000E94B600CAE580E00E94C50074
S11301306C0181E00E94C5008C0182E00E94C50030
S11301407C01A601BC01C8010E944B002C2FA70111
S1130150B8018CE291E00E940801C82F0E94FE00C1
S1130160882319F38C2F0E94EB00DFCF82E084B93F
S113017082E8809380008AE18093810080E49CE996
S113018090938700809386000895811104C080E4D1
S113019080937C000BC0813021F481E480937C0047
S11301A005C0823089F482E480937C00EAE7F0E0C1
S11301B080818064808380917A0086FDFCCF809169
S11301C0780090917900089580E090E0089587E8A0
S11301D080937A000895282F30E0A4EBBFE00E94BA
S11301E01F0224EB30E040E050E00E94FD012C525D
S11301F03C4F30938900209388000895823020F08A
S1130200843B20F080E0089580E0089581E0089523
S1130210CF93DF93EB01FA0168EC70E00E94E901EF
S1130220EC17FD0724F4261B822F90E009C0CE179B
S1130230DF0724F4260F822F90E002C080E090E0D4
S1130240DF91CF91089587E690E09093C500809365
S1130250C400E0ECF0E080818D7F808388E18093AE
S1130260C10086E08093C20008959091C00095FF7C
S1130270FCCF8093C60008950F931F93CF938C01F6
S1130280C0E003C00E943501CF5FF801EC0FF11DFF
S113029080818111F7CFCF911F910F9108950F9312
S11302A01F93CF93DF938C019C0136952795369548
S11302B0279536952795A5ECB0E20E941F02AC0164
S11302C0529542954F7045275F7045279A01ADECD2
S11302D0BCEC0E941F0296958795969587959695F6
S11302E087959C01220F331F880F991F880F991F30
S11302F0880F991F820F931F9A01281B390BC9017C
S1130300805D0E943501980136952795369527958D
S1130310ABE7B4E10E941F02AC01569547959A01E0
S1130320ADECBCEC0E941F02969587959695879537
S1130330969587959C01220F331F880F991F880F6C
S1130340991F880F991F820F931F9A01281B390B3D
S1130350C901805D0E9435019801ADECBCEC0E949E
S11303601F02EC01D695C795D695C795D695C79526
S11303709E010E941F02969587959695879596955E
S113038087959C01220F331F880F991F880F991F8F
S1130390880F991F820F931F9E01281B390BC901D7
S11303A0805D0E943501CE01880F991FCC0FDD1F9F
S11303B0CC0FDD1FCC0FDD1FC80FD91FC8018C1B4C
S11303C09D0B805D0E943501DF91CF911F910F91AC
S11303D0089597FB072E16F4009407D077FD09D0F3
S11303E00E942E0207FC05D03EF4909581959F4F04
S11303F00895709561957F4F0895A1E21A2EAA1B66
S1130400BB1BFD010DC0AA1FBB1FEE1FFF1FA217C0
S1130410B307E407F50720F0A21BB30BE40BF50BBD
S1130420661F771F881F991F1A9469F76095709546
S1130430809590959B01AC01BD01CF010895A29FC9
S1130440B001B39FC001A39F700D811D1124911DA4
S1130450B29F700D811D1124911D0895AA1BBB1B11
S113046051E107C0AA1FBB1FA617B70710F0A61BB0
S1130470B70B881F991F5A95A9F780959095BC01D1
S10B0480CD010895F894FFCFAB
S1130488206C6967687453656E736F72313A200023
S11304982C00206C6967687453656E736F72323A06
S11304A8200020706F744D657465723A20000D0A3F
S10504B800003E
S9030000FC
